S01C000073657269616C5F636F6D6D5F7472616E736D69742E73726563AC
S11300000C9434000C943E000C943E000C943E007E
S11300100C943E000C943E000C943E000C943E0064
S11300200C943E000C943E000C943E000C943E0054
S11300300C943E000C943E000C943E000C943E0044
S11300400C943E000C943E000C943E000C943E0034
S11300500C943E000C9468000C943E000C943E00FA
S11300600C943E000C943E0011241FBECFEFD8E048
S1130070DEBFCDBF0E9440000C948F000C940000A2
S1130080F89480EF8AB917B81092C5008FEF809367
S1130090C40088E08093C1008EE08093C200ECE746
S11300A0F0E0808180668083EAE7F0E080818F6EF3
S11300B080838091C00088234CF0A6ECB0E0E0EC93
S11300C0F0E08C918BB980818823DCF77894FFCFA2
S11300D01F920F920FB60F9211248F93AF93BF9379
S11300E0CF93DF93EF93FF938091C00085FD0BC006
S11300F0C9E7D0E0A6ECB0E0E0ECF0E088818C93B6
S1130100808185FFFBCFFF91EF91DF91CF91BF916C
S1130110AF918F910F900FBE0F901F901895F89488
S1050120FFCF0B
S9030000FC
