:100000000C9434000C943E000C943E000C943E0082
:100010000C943E000C943E000C943E000C943E0068
:100020000C943E000C943E000C943E000C943E0058
:100030000C943E000C943E000C943E000C943E0048
:100040000C943E000C943E000C943E000C943E0038
:100050000C943E000C9464000C943E000C943E0002
:100060000C943E000C943E0011241FBECFEFD8E04C
:10007000DEBFCDBF0E9440000C947D000C940000B8
:10008000F8948FEF84B917B81092C50089E0809377
:10009000C40088E18093C10086E08093C200ECE751
:1000A000F0E0808180648083EAE7F0E080818D6EFB
:1000B00080837894E0ECF0E0A6ECB0E080818823C7
:1000C000ECF78C9185B9FACF1F920F920FB60F9271
:1000D00011248F93EF93FF93E0ECF0E0808185FF94
:1000E000FDCF809179008093C600FF91EF918F91B1
:0E00F0000F900FBE0F901F901895F894FFCF41
:00000001FF
