:100000000C9434000C9446000C9446000C9446006A
:100010000C9446000C9446000C9446000C94460048
:100020000C9446000C9446000C9446000C94460038
:100030000C9446000C9446000C9446000C94460028
:100040000C9446000C9446000C946B000C944600F3
:100050000C9446000C9446000C9446000C94460008
:100060000C9446000C94460011241FBECFEFD8E03C
:10007000DEBFCDBF21E0A0E0B1E001C01D92A531FF
:10008000B207E1F70E94C3000C9404010C94000035
:1000900087E690E09093C5008093C400E1ECF0E027
:1000A0008081886180838EE08093C20008950E94E1
:1000B00048008EE284B9209A82E08AB92A9A299A65
:1000C00081E58CBD0895E0ECF0E0908195FFFDCFD7
:1000D0008093C60008951F920F920FB60F921124BD
:1000E0002F933F934F935F936F937F938F939F9340
:1000F000AF93BF93EF93FF93A0910001E1E0EA0F6C
:10010000E09300018091C600B0E0A55FBE4F8C93E4
:10011000F0E0E65FFE4F80810E946300FF91EF9167
:10012000BF91AF919F918F917F916F915F914F910F
:100130003F912F910F900FBE0F901F9018958EBD7D
:100140000DB407FEFDCF8EB50895CF93C82F2A9822
:1001500080E40E949F0080E00E949F008C2F0E94FC
:100160009F002A9ACF910895CF93C82F2A9880E4B0
:100170000E949F008AE00E949F008C2F0E949F0097
:100180002A9ACF9108950E9457008AE0EBE0F1E0AF
:10019000DF01282F1D922A95E9F7E1E0F1E0DF0168
:1001A0001D928A95E9F7789480E00E94A5008FE07F
:1001B0000E94B400BFEF23ED80E3B15020408040A7
:1001C000E1F700C0000080EF0E94B4009FEFA3EDB4
:1001D000B0E39150A040B040E1F700C000008AEACF
:1001E0000E94B400CBEA8C2F0E94B4008C2F0E9496
:1001F00063002FEF81EE94E0215080409040E1F7C2
:0C02000000C00000CF5FEFCFF894FFCFEC
:00000001FF
